:020000040800F2
:1000000000C0002025250008111F0008131F00084C
:10001000151F0008171F0008191F00080000000026
:100020000000000000000000000000001B1F00088E
:100030001D1F0008000000001F1F0008211F0008EE
:100040006D2500086D2500086D2500086D25000848
:100050006D2500086D2500086D2500086D25000838
:100060006D2500086D2500086D250008291F000872
:100070006D2500086D2500086D2500086D25000818
:100080006D2500086D250008391F00086D25000842
:100090006D2500086D2500086D2500086D250008F8
:1000A0006D2500086D2500086D2500086D250008E8
:1000B0006D250008491F00086D2500086D25000802
:1000C0006D2500086D2500086D2500086D250008C8
:1000D0006D250008591F0008A11F00086D250008A4
:1000E0006D2500086D2500086D2500086D250008A8
:1000F0006D2500086D2500086D2500086D25000898
:100100006D2500086D2500086D2500086D25000887
:100110006D2500086D250008E91F00086D25000801
:100120006D2500086D2500086D2500086D25000867
:1001300000000000000000000000000000000000BF
:1001400000000000000000000000000000000000AF
:10015000000000000000000000000000000000009F
:10016000000000000000000000000000000000008F
:10017000000000000000000000000000000000007F
:10018000000000000000000000000000000000006F
:10019000000000000000000000000000000000005F
:1001A000000000000000000000000000000000004F
:1001B000000000000000000000000000000000003F
:1001C000000000000000000000000000000000002F
:1001D000000000000000000000000000000000001F
:0401E0005FF8E0F1F3
:1001E80080F0004002E000BF81F0004142001FBFE4
:1001F8005FEA410392EA030F7FEA226C7FEA236CED
:100208006AD04FEA1262D2EB1363C1BFD2184140E1
:1002180048404140B8BF5B42192B88BF704710F077
:10022800004F40F4000020F07F4018BF404211F01A
:10023800004F41F4000121F07F4118BF494292EA82
:10024800030F3FD0A2F1010241FA03FC10EB0C00AE
:10025800C3F1200301FA03F100F0004302D549423B
:1002680060EB4000B0F5000F13D3B0F1807F06D3E8
:1002780040084FEA310102F10102FE2A51D2B1F1E0
:10028800004F40EBC25008BF20F0010040EA0300D5
:100298007047490040EB0000013A28BFB0F5000F55
:1002A800EDD2B0FA80FCACF1080CB2EB0C0200FA0B
:1002B8000CF0AABF00EBC25052421843BCBFD0405A
:1002C8001843704792F0000F81F4000106BF80F4D4
:1002D80000000132013BB5E74FEA41037FEA226C97
:1002E80018BF7FEA236C21D092EA030F04D092F062
:1002F800000F08BF0846704790EA010F1CBF002096
:10030800704712F07F4F04D1400028BF40F00040F2
:10031800704712F100723CBF00F50000704700F012
:10032800004343F0FE4040F4000070477FEA226239
:1003380016BF08467FEA23630146420206BF5FEA0A
:10034800412390EA010F40F4800070474FF000030A
:1003580004E000BF10F0004348BF40425FEA000CD1
:1003680008BF704743F0964301464FF000001CE079
:1003780050EA010208BF70474FF000030AE000BFCF
:1003880050EA010208BF704711F0004302D540420D
:1003980061EB41015FEA010C02BF8446014600207F
:1003A80043F0B64308BFA3F18053A3F50003BCFA9A
:1003B8008CF2083AA3EBC25310DB01FA02FC634447
:1003C80000FA02FCC2F12002BCF1004F20FA02F24E
:1003D80043EB020008BF20F00100704702F1200241
:1003E80001FA02FCC2F1200250EA4C0021FA02F2A2
:1003F80043EB020008BF20EADC7070474FF0FF0CA7
:100408001CEAD0521EBF1CEAD15392EA0C0F93EAA1
:100418000C0F6FD01A4480EA010C400218BF5FEA43
:1004280041211ED04FF0006343EA501043EA5111B6
:10043800A0FB01310CF00040B1F5000F3EBF4900B0
:1004480041EAD3715B0040EA010062F17F02FD2AB4
:100458001DD8B3F1004F40EBC25008BF20F0010097
:10046800704790F0000F0CF0004C08BF49024CEAAE
:10047800502040EA51207F3AC2BFD2F1FF0340EA40
:10048800C250704740F400004FF00003013A5DDCB1
:1004980012F1190FDCBF00F000407047C2F10002F2
:1004A800410021FA02F1C2F1200200FA02FC5FEADF
:1004B800310040F1000053EA4C0308BF20EADC7029
:1004C800704792F0000F00F0004C02BF400010F49B
:1004D800000F013AF9D040EA0C0093F0000F01F048
:1004E800004C02BF490011F4000F013BF9D041EA6A
:1004F8000C018FE70CEAD15392EA0C0F18BF93EA6C
:100508000C0F0AD030F0004C18BF31F0004CD8D195
:1005180080EA010000F00040704790F0000F17BF1C
:1005280090F0004F084691F0000F91F0004F14D062
:1005380092EA0C0F01D142020FD193EA0C0F03D1BA
:100548004B0218BF084608D180EA010000F00040BD
:1005580040F0FE4040F40000704740F0FE4040F498
:10056800400070474FF0FF0C1CEAD0521EBF1CEA37
:10057800D15392EA0C0F93EA0C0F69D0A2EB030255
:1005880080EA010C49024FEA402037D04FF08053EF
:1005980043EA111143EA10130CF000408B4238BFB4
:1005A8005B0042F17D024FF4000C8B4224BF5B1AC2
:1005B80040EA0C00B3EB510F24BFA3EB510340EA10
:1005C8005C00B3EB910F24BFA3EB910340EA9C00BE
:1005D800B3EBD10F24BFA3EBD10340EADC001B012E
:1005E80018BF5FEA1C1CE0D1FD2A3FF650AF8B42D2
:1005F80040EBC25008BF20F0010070470CF0004CDF
:100608004CEA50207F32C2BFD2F1FF0340EAC25009
:10061800704740F400004FF00003013A37E792F0CA
:10062800000F00F0004C02BF400010F4000F013A28
:10063800F9D040EA0C0093F0000F01F0004C02BF23
:10064800490011F4000F013BF9D041EA0C0195E78C
:100658000CEAD15392EA0C0F08D142027FF47DAF25
:1006680093EA0C0F7FF470AF084676E793EA0C0F15
:1006780004D14B023FF44CAF08466EE730F0004C13
:1006880018BF31F0004CCAD130F000427FF45CAFA3
:1006980031F000437FF43CAF5FE700BF42000ED269
:1006A800B2F1FE4F0BD34FF09E03B3EB126209D4A5
:1006B8004FEA002343F0004323FA02F070474FF05B
:1006C8000000704712F1610F01D1420202D14FF0D0
:1006D800FF3070474FF00000704700BF844641EA82
:1006E800000313F0030349D1403A23D30B68036096
:1006F8004B6843608B688360CB68C3600B69036198
:100708004B6943618B698361CB69C3610B6A03627F
:100718004B6A43628B6A8362CB6AC3620B6B036367
:100728004B6B43638B6B8363CB6BC363403040314C
:10073800403ADBD230320BD30B6803604B6843601E
:100748008B688360CB68C36010301031103AF3D2E5
:100758000C3205D351F8043B40F8043B043AF9D273
:10076800043208D0D2071CBF11F8013B00F8013B46
:1007780001D30B8803806046704700BF082A13D353
:100788008B07B1D010F00303AED0C3F10403D21A23
:10079800DB071CBF11F8013B00F8013BA4D331F87B
:1007A800023B20F8023B9FE7043AD9D3013A11F8FB
:1007B800013B00F8013BF9D20B7803704B7843708A
:1007C8008B7883706046704781F0004102E000BF7B
:1007D80083F0004330B54FEA41044FEA430594EAF9
:1007E800050F08BF90EA020F1FBF54EA000C55EA34
:1007F800020C7FEA645C7FEA655C00F0E2804FEA05
:100808005454D4EB5555B8BF6D420CDD2C4480EAE6
:10081800020281EA030382EA000083EA010180EA16
:10082800020281EA0303362D88BF30BD11F0004F64
:100838004FEA01314FF4801C4CEA113102D040429A
:1008480061EB410113F0004F4FEA03334CEA1333D5
:1008580002D0524263EB430394EA050F00F0A780ED
:10086800A4F10104D5F1200E0DDB02FA0EFC22FAE8
:1008780005F2801841F1000103FA0EF2801843FADC
:1008880005F359410EE0A5F120050EF1200E012ACD
:1008980003FA0EFC28BF4CF0020C43FA05F3C0180B
:1008A80051EBE37101F0004507D54FF0000EDCF184
:1008B800000C7EEB00006EEB0101B1F5801F1BD32D
:1008C800B1F5001F0CD349085FEA30004FEA3C0C31
:1008D80004F101044FEA445212F5800F80F09A8027
:1008E800BCF1004F08BF5FEA500C50F1000041EB2B
:1008F800045141EA050130BD5FEA4C0C404141EB2F
:100908000101013C28BFB1F5801FE9D291F0000F29
:1009180004BF01460020B1FA81F308BF2033A3F1D8
:100928000B03B3F120020CDA0C3208DD02F1140CCF
:10093800C2F10C0201FA0CF021FA02F10CE002F10A
:100948001402D8BFC2F1200C01FA02F120FA0CFC03
:10095800DCBF41EA0C019040E41AA2BF01EB04514C
:10096800294330BD6FEA04041F3C1CDA0C340EDC4A
:1009780004F11404C4F1200220FA04F001FA02F38D
:1009880040EA030021FA04F345EA030130BDC4F14B
:100998000C04C4F1200220FA02F001FA04F340EA40
:1009A8000300294630BD21FA04F0294630BD94F0F1
:1009B800000F83F4801306BF81F480110134013DD8
:1009C8004EE77FEA645C18BF7FEA655C29D094EA49
:1009D800050F08BF90EA020F05D054EA000C04BFC7
:1009E8001946104630BD91EA030F1EBF00210020B2
:1009F80030BD5FEA545C05D14000494128BF41F051
:100A0800004130BD14F580043CBF01F5801130BDB4
:100A180001F0004545F0FE4141F470014FF000003F
:100A280030BD7FEA645C1ABF194610467FEA655CF0
:100A38001CBF0B46024650EA013406BF52EA033592
:100A480091EA030F41F4002130BD00BF90F0000F80
:100A580004BF0021704730B54FF4806404F13204BC
:100A68004FF000054FF0000150E700BF90F0000F75
:100A780004BF0021704730B54FF4806404F132049C
:100A880010F0004548BF40424FF000013EE700BF6C
:100A980042004FEAE2014FEA31014FEA02701FBFFC
:100AA80012F07F4393F07F4F81F06051704732F02E
:100AB8007F4208BF704793F07F4F04BF41F4002185
:100AC800704730B54FF4607401F0004521F00041E3
:100AD8001CE700BF50EA010208BF704730B54FF06D
:100AE80000050AE050EA010208BF704730B511F06E
:100AF800004502D5404261EB41014FF4806404F1A6
:100B080032045FEA915C3FF4D8AE4FF003025FEA2B
:100B1800DC0C18BF03325FEADC0C18BF033202EBAF
:100B2800DC02C2F1200300FA03FC20FA02F001FA09
:100B380003FE40EA0E0021FA02F11444BDE600BFAC
:100B480070B54FF0FF0C4CF4E06C1CEA11541DBF5B
:100B58001CEA135594EA0C0F95EA0C0F00F0DEF826
:100B68002C4481EA030621EA4C5123EA4C5350EA0B
:100B7800013518BF52EA033541F4801143F480135C
:100B880038D0A0FB02CE4FF00005E1FB02E506F0ED
:100B98000042E0FB03E54FF00006E1FB03569CF042
:100BA800000F18BF4EF0010EA4F1FF04B6F5007F48
:100BB80064F5407404D25FEA4E0E6D4146EB0606BA
:100BC80042EAC62141EA55514FEAC52040EA5E5043
:100BD8004FEACE2EB4F1FD0C88BFBCF5E06F1ED8ED
:100BE800BEF1004F08BF5FEA500E50F1000041EB24
:100BF800045170BD06F0004646EA010140EA0200D1
:100C080081EA0301B4EB5C04C2BFD4EB0C0541EAF2
:100C1800045170BD41F480114FF0000E013C00F307
:100C2800AB8014F1360FDEBF002001F0004170BD2B
:100C3800C4F10004203C35DA0C341BDC04F1140444
:100C4800C4F1200500FA05F320FA04F001FA05F2D0
:100C580040EA020001F0004221F0004110EBD3709D
:100C680021FA04F642EB06015EEA430E08BF20EAC9
:100C7800D37070BDC4F10C04C4F1200500FA04F36C
:100C880020FA05F001FA04F240EA020001F00041FE
:100C980010EBD37041F100015EEA430E08BF20EA71
:100CA800D37070BDC4F1200500FA05F24EEA020EB9
:100CB80020FA04F301FA05F243EA020321FA04F0E8
:100CC80001F0004121FA04F220EA020000EBD3709F
:100CD8005EEA430E08BF20EAD37070BD94F0000F9F
:100CE8000FD101F00046400041EB010111F4801FD3
:100CF80008BF013CF7D041EA060195F0000F18BF84
:100D0800704703F00046520043EB030313F4801FBF
:100D180008BF013DF7D043EA0603704794EA0C0F79
:100D28000CEA135518BF95EA0C0F0CD050EA41068F
:100D380018BF52EA4306D1D181EA030101F000410C
:100D48004FF0000070BD50EA410606BF1046194634
:100D580052EA430619D094EA0C0F02D150EA013640
:100D680013D195EA0C0F05D152EA03361CBF104681
:100D780019460AD181EA030101F0004141F0FE4120
:100D880041F470014FF0000070BD41F0FE4141F4A4
:100D9800780170BD70B54FF0FF0C4CF4E06C1CEAA4
:100DA80011541DBF1CEA135594EA0C0F95EA0C0F59
:100DB80000F0A7F8A4EB050481EA030E52EA033514
:100DC8004FEA013100F088804FEA03334FF0805535
:100DD80045EA131343EA12634FEA022245EA111562
:100DE80045EA10654FEA00260EF000419D4208BF13
:100DF800964244F1FD0404F5407402D25B084FEAC0
:100E08003202B61A65EB03055B084FEA32024FF46B
:100E180080104FF4002CB6EB020E75EB030E22BFC8
:100E2800B61A754640EA0C005B084FEA3202B6EB88
:100E3800020E75EB030E22BFB61A754640EA5C0037
:100E48005B084FEA3202B6EB020E75EB030E22BFC7
:100E5800B61A754640EA9C005B084FEA3202B6EBC8
:100E6800020E75EB030E22BFB61A754640EADC0087
:100E780055EA060E18D04FEA051545EA16754FEAE9
:100E880006164FEAC30343EA52734FEAC2025FEA07
:100E98001C1CC0D111F4801F0BD141EA00014FF096
:100EA80000004FF0004CB6E711F4801F04BF014367
:100EB8000020B4F1FD0C88BFBCF5E06F3FF6AFAE83
:100EC800B5EB030C04BFB6EB020C5FEA500C50F113
:100ED800000041EB045170BD0EF0004E4EEA113196
:100EE80014EB5C04C2BFD4EB0C0541EA045170BD9D
:100EF80041F480114FF0000E013C90E645EA060EE1
:100F08008DE60CEA135594EA0C0F08BF95EA0C0F0E
:100F18003FF43BAF94EA0C0F0AD150EA01347FF456
:100F280034AF95EA0C0F7FF425AF104619462CE72D
:100F380095EA0C0F06D152EA03353FF4FDAE104690
:100F4800194622E750EA410618BF52EA43067FF4E1
:100F5800C5AE50EA41047FF40DAF52EA43057FF471
:100F6800EBAE12E74FF0FF3C06E000BF4FF0010C7C
:100F780002E000BF4FF0010C4DF804CD4FEA410CE0
:100F88007FEA6C5C4FEA430C18BF7FEA6C5C1BD0AD
:100F980001B050EA410C0CBF52EA430C91EA030F2E
:100FA80002BF90EA020F0020704710F1000F91EA8B
:100FB800030F58BF994208BF90422CBFD8176FEA59
:100FC800E37040F0010070474FEA410C7FEA6C5C27
:100FD80002D150EA013C07D14FEA430C7FEA6C5C2E
:100FE800D6D152EA033CD3D05DF8040B704700BF5A
:100FF8008446104662468C461946634600E000BFA8
:1010080001B5FFF7B7FF002848BF10F1000F01BD79
:101018004DF808EDFFF7F4FF0CBF012000205DF844
:1010280008FB00BF4DF808EDFFF7EAFF34BF0120C9
:1010380000205DF808FB00BF4DF808EDFFF7E0FF62
:1010480094BF012000205DF808FB00BF4DF808EDB3
:10105800FFF7CEFF94BF012000205DF808FB00BF1A
:101068004DF808EDFFF7C4FF34BF012000205DF8FC
:1010780008FB00BF4FEA410C7FEA6C5C02D150EAE2
:10108800013C0AD14FEA430C7FEA6C5C02D152EA78
:10109800033C02D14FF0000070474FF00100704749
:1010A8004FEA410212F5001215D211D56FF4787388
:1010B800B3EB625212D94FEAC12343F0004343EA2B
:1010C800505311F0004F23FA02F018BF4042704706
:1010D8004FF00000704750EA013005D111F0004090
:1010E80008BF6FF0004070474FF00000704700BF26
:1010F8000348044B834202D0034B03B1184770479F
:10110800C4060020C4060020000000000548064B65
:101118001B1AD90F01EBA301491002D0034B03B1ED
:1011280018477047C4060020C406002000000000CD
:1011380010B5064C237843B9FFF7DAFF044B13B117
:101148000448AFF300800123237010BDC4060020BB
:101158000000000020B3000808B5054B1BB1054985
:101168000548AFF30080BDE80840FFF7CFBF00BFD8
:1011780000000000C806002020B300082DE9F8434D
:1011880081460F4615469846BDF82060013B013A56
:101198009BB292B200F0F6F808E0304600F0D4F8BE
:1011A8000134A4B2AC42F8D30137BFB2474501D2EB
:1011B8004C46F7E7BDE8F88310B50B4614460246DF
:1011C80000F0E0F8204600F0BFF810BD2DE9F04F20
:1011D80085B00446BDF838000190A046A2EB040B88
:1011E8008946A3EB010ABBF1000F0DDD0122029233
:1011F800BAF1000F14DD01230393D3451CDD5E46CD
:1012080000252F462C461BE0BBF1000F05D0A4EBB0
:10121800020B4FF0FF320292EAE7CDF808B0E7E799
:10122800BAF1000F05D0A1EB030A4FF0FF33039387
:10123800E3E7CDF80CA0E0E75646E1E70134A4B2B5
:10124800B44213DC019A1FFA89F11FFA88F0FFF7FC
:10125800B3FF5F445544BE4202DABF1B029B984469
:10126800AE42EBDAAD1B039B9944E7E705B0BDE856
:10127800F08F2DE9F04182B007460E4615461C4610
:10128800BDF82080CDF800800B46FFF79FFFCDF812
:10129800008023463A4631463846FFF797FFCDF897
:1012A800008023462A4621463846FFF78FFFCDF8AF
:1012B800008023462A4631462846FFF787FF02B0BA
:1012C800BDE8F08110B582B00024009473231E227B
:1012D80014210846FFF7CDFF00945823DC22302163
:1012E800B420FFF7C6FF02B010BD000000B583B000
:1012F8008DF80700074B1B689B6813F0020FF9D0A5
:10130800FF2301220DF10701024802F098FD03B006
:101318005DF804FBF809002038B50446074D0022A3
:101328000121284602F003F92046FFF7DFFF0122DA
:101338001146284602F0FBF838BD00BF000C0140FA
:1013480008B5FFF7E9FF08BD10B50446000AFFF726
:10135800E3FFE0B2FFF7E0FF10BD000038B5044638
:10136800074D00221021284602F0E1F82046FFF739
:10137800D3FF01221021284602F0D9F838BD00BF5A
:1013880000100140F8B507460D4616461C462A20AF
:10139800FFF7E4FF07F1280080B2FFF7D5FF06F159
:1013A800280080B2FFF7D0FF2B20FFF7D7FF05F109
:1013B800340080B2FFF7C8FF04F1340080B2FFF7B1
:1013C800C3FF2C20FFF7CAFFF8BD000010B5644C1E
:1013D80000222021204602F0AAF8642001F00EF92C
:1013E80001222021204602F0A2F8642001F006F92B
:1013F8001120FFF7B3FF782001F000F93620FFF73E
:10140800ADFFA020FFF79CFF3A20FFF7A7FF0520BC
:10141800FFF796FFB220FFF7A1FF0C20FFF790FF20
:101428000C20FFF78DFF0020FFF78AFF3320FFF71E
:1014380087FF3320FFF784FFB720FFF78FFF3520A2
:10144800FFF77EFFBB20FFF789FF1920FFF778FF22
:10145800C020FFF783FF2C20FFF772FFC220FFF7A1
:101468007DFF0120FFF76CFFC320FFF777FF1220F5
:10147800FFF766FFC420FFF771FF2020FFF760FF2A
:10148800C620FFF76BFF0F20FFF75AFFD020FFF7AA
:1014980065FFA420FFF754FFA120FFF751FFE020CC
:1014A800FFF75CFFD020FFF74BFF0420FFF748FF52
:1014B8000D20FFF745FF1120FFF742FF1320FFF72C
:1014C8003FFF2B20FFF73CFF3F20FFF739FF542059
:1014D800FFF736FF4C20FFF733FF1820FFF730FFE8
:1014E8000D20FFF72DFF0B20FFF72AFF1F20FFF726
:1014F80027FF2320FFF724FFE120FFF72FFFD0204D
:10150800FFF71EFF0420FFF71BFF0C20FFF718FF53
:101518001120FFF715FF1320FFF712FF2C20FFF70C
:101528000FFF3F20FFF70CFF4420FFF709FF512072
:10153800FFF706FF2F20FFF703FF1F20FFF700FF2D
:101548001F20FFF7FDFE2020FFF7FAFE2320FFF7FC
:10155800F7FE2120FFF702FF2920FFF7FFFE10BD4D
:101568000010014000B585B0002301930293039356
:101578001E481F4A02604FF480728260037303752D
:101588004FF40022C26143600323036101F0B2FA01
:10159800F8B90B230193012302930523039301A9AF
:1015A800124801F0FFF8B8B90C2301930223029303
:1015B80001A90E4801F0F6F888B90D230193032319
:1015C800029301A9094801F0EDF858B905B05DF892
:1015D80004FB00F015FBDCE700F012FBE4E700F089
:1015E8000FFBEAE700F00CFBF0E700BF2407002040
:1015F8000024014010B586B000230293039304939E
:1016080005930268234B9A4201D006B010BD0446E8
:1016180003F56C439A6942F400729A619A6902F47C
:1016280000720092009A9A6942F010029A619B69CE
:1016380003F010030193019B0E23029303230393EA
:1016480002A9154801F050FE1448154B0360002309
:10165800436083608023C3604FF4807303614FF459
:1016680080634361202383614FF40053C36101F019
:1016780065FB58B9094B23625C62002202211220E3
:1016880001F014FB122001F021FBBEE700F0B8FACC
:10169800F0E700BF0024014000100140E0060020F0
:1016A8000800024008B5024800F09EFE08BD00BFD1
:1016B80038B3000808B5024800F096FE08BD00BF20
:1016C8003CB3000808B5024800F08EFE08BD00BF14
:1016D80040B3000808B5024800F086FE08BD00BF08
:1016E80044B3000808B5024800F07EFE08BD00BFFC
:1016F80048B3000808B5024800F076FE08BD00BFF0
:1017080050B3000808B5024800F06EFE08BD00BFDF
:1017180058B3000808B5024800F066FE08BD00BFCF
:1017280060B3000808B5024800F05EFE08BD00BFBF
:1017380068B3000808B5024800F056FE08BD00BFAF
:1017480070B3000808B5024800F04EFE08BD00BF9F
:1017580078B3000808B5024800F046FE08BD00BF8F
:1017680080B3000808B5024800F03EFE08BD00BF7F
:1017780088B3000808B50B2849D8DFE800F0060B45
:1017880010151A20262C3238433E2021214801F01A
:10179800C7FE08BD40211F4801F0C2FEF9E710212D
:1017A8001C4801F0BDFEF4E708211A4801F0B8FE14
:1017B800EFE74FF48051184801F0B2FEE9E74FF423
:1017C8008061164801F0ACFEE3E74FF4004112488F
:1017D80001F0A6FEDDE74FF40061104801F0A0FE1D
:1017E800D7E74FF400610B4801F09AFED1E74FF4B8
:1017F8008061084801F094FECBE78021054801F09C
:101808008FFEC6E70421064801F08AFEC1E70020E2
:10181800BFE700BF000C0140000801400010014074
:101828000014014038B55D4C5D4D00231A46214631
:10183800284603F046FB5B4A0021284603F05CFB80
:10184800594A0421284603F057FB284603F05AFB5F
:10185800564D012300222146284603F032FB544A04
:101868000021284603F048FB284603F04BFB514D66
:10187800022300222146284603F023FB4E4A00217A
:10188800284603F039FB284603F03CFB4B4D032365
:1018980000222146284603F014FB494A0021284625
:1018A80003F02AFB284603F02DFB464D04230022B3
:1018B8002146284603F005FB434A0021284603F049
:1018C8001BFB284603F01EFB404D05230022214642
:1018D800284603F0F6FA3E4A0021284603F00CFB9E
:1018E800284603F00FFB3B4D0623002221462846DD
:1018F80003F0E7FA384A0021284603F0FDFA2846A3
:1019080003F000FB354D072300222146284603F04B
:10191800D8FA334A0021284603F0EEFA284603F0A5
:10192800F1FA304D082300222146284603F0C9FA6F
:101938002D4A0021284603F0DFFA284603F0E2FA90
:101948002A4D092300222146284603F0BAFA284ADC
:101958000021284603F0D0FA284603F0D3FA254D93
:101968000B2300222146284603F0ABFA224A002125
:10197800284603F0C1FA284603F0C4FA1F4D0A238B
:1019880000222146284603F09CFA1D4A00212846D9
:1019980003F0B2FA284603F0B5FA38BD7D170008FF
:1019A80038090020AD1600086D1700080C09002042
:1019B800BD160008E0080020CD160008B408002075
:1019C800DD16000830080020ED1600080408002085
:1019D800FD160008880800200D1700085C08002084
:1019E8001D170008D80700202D170008AC07002095
:1019F8003D170008800700204D17000854070020F5
:101A08005D17000800B583B00A4B5A6942F001021D
:101A18005A615B6903F001030193019B00220221D3
:101A28000B2001F043F90B2001F050F903B05DF8E9
:101A380004FB00BF001002402DE9F04389B00024E8
:101A480004940594069407943F4B9A6942F0200247
:101A58009A619A6902F020020092009A9A6942F00B
:101A680010029A619A6902F010020192019A9A6929
:101A780042F004029A619A6902F004020292029A00
:101A88009A6942F008029A619B6903F0080303937C
:101A9800039B2E4F01221146384601F048FD2C4E7B
:101AA80001223021304601F042FDDFF8A8800122F2
:101AB80041F20101404601F03AFD012504950595E2
:101AC80006944FF00309CDF81C9004A9384601F09C
:101AD8000BFC3023049305950694CDF81C9004A9BB
:101AE800304601F001FC41F2010304930595069488
:101AF800CDF81C9004A9404601F0F6FB40F6F843E7
:101B080004930594069504A9404601F0EDFB4FF4B3
:101B1800104304930594069504A9384601F0E4FBA4
:101B28004FF4406304930594069504A9304601F0E8
:101B3800DBFB042304930594069504A9064801F0E9
:101B4800D3FB09B0BDE8F083001002400008014053
:101B580000100140000C0140001401400168224BB4
:101B680099423BD0704703EB4300204901EB400109
:101B780089880A4492B20133DBB2092BF3D91046A3
:101B8800FEF7E8FB1A49FEF739FC01461948FEF74B
:101B98002BFB1849FEF7E6FC01464FF07E50FEF796
:101BA80023FB1549FEF72AFC1449FEF71FFBFEF735
:101BB80075FD84B24FF6FF73009323461E2215214C
:101BC8000846FFF7DBFA4FF47843009373231E228D
:101BD80021461520FFF7D2FA02B010BD10B582B029
:101BE80000220023C9E700BF002401406409002047
:101BF800E5FF1F3B0000C8420000BE420000A841AC
:101C080072B6FEE700B597B0282200210CA803F0B1
:101C1800EDFA00230793089309930A930B93019312
:101C28000293039304930593069301220C924FF4B5
:101C380080330D9310920222139214934FF4E01301
:101C480015930CA801F090FCC8B90F230793022143
:101C58000891002309934FF480620A920B9307A816
:101C680001F0B4FE68B9022301934FF400430393D3
:101C780001A801F087FF30B917B05DF804FBFFF742
:101C8800BFFFFFF7BDFFFFF7BBFF000000B583B044
:101C980000F090FCFFF7B6FFFFF7CEFEFFF7B2FEAD
:101CA80000F0D2FB00F068F8FFF75CFC00F088F861
:101CB80000F008FC00F086FA00F0BCFAFFF786FB9B
:101CC8004FF6FF7300938723F02200210846FFF7A1
:101CD80055FAFFF7F7FAFFF7A5FD1E221E491F4820
:101CE80000F044FE1E4802F0B3F91E4802F0B0F9B5
:101CF80004E01D4B9A6D5B6D9A4218D11B4A936D97
:101D0800526D9342F5D019685A68521A0132FF236E
:101D180092B2174802F0F8FC144A936D08339365A1
:101D2800D26D9342E5D1114B1A1D9A65E1E711680E
:101D38005268521A0132FF2392B20E4802F0E4FCB4
:101D4800094A936D08339365D26D9342D6D1064BF9
:101D58001A1D9A65D2E700BF6409002024070020F5
:101D6800A00A0020580A0020E81A0020481B00207A
:101D78000C1C0020541C002008B50F480F4B0360B2
:101D88004FF4827343604FF4004383600023C360C1
:101D9800036143614FF4007282610822C2610362E9
:101DA800436283620A23C36201F0EEFF00B908BDF3
:101DB800FFF726FFFBE700BFF809002000300140CD
:101DC80008B50D480D4B03604FF482734360002340
:101DD8008360C360036143614FF400728261C36131
:101DE8000362436283620A23C36201F0CDFF00B934
:101DF80008BDFFF705FFFBE7A009002000380040F9
:101E080010B588B0002304930593069307930368DD
:101E1800274A934204D0274A93421FD008B010BDE6
:101E2800254B9A6942F480529A619A6902F4805269
:101E38000092009A9A6942F004029A619B6903F041
:101E480004030193019BA023049302230593032316
:101E5800079304A9194801F047FADFE7164BDA6936
:101E680042F48042DA61DA6902F480420292029A0C
:101E78009A6942F008029A619B6903F00803039388
:101E8800039B4FF4204304930223059303230793F2
:101E98000B4C04A9204601F027FA4FF48043049321
:101EA80000230593069304A9204601F01DFAB5E71F
:101EB8000030014000380040001002400008014096
:101EC800000C014082B00E4B9A6942F001029A61FF
:101ED8009A6902F001020092009ADA6942F080528F
:101EE800DA61DB6903F080530193019B054A53686B
:101EF80023F0E06343F00073536002B0704700BF03
:101F08000010024000000140FEE7FEE7FEE7FEE7A2
:101F1800FEE770477047704708B500F05DFB08BDE5
:101F280008B5024801F06AF808BD00BFE0060020C5
:101F380008B5024800F0A6FB08BD00BF2407002032
:101F480008B5024802F0C4F808BD00BFA00A002086
:101F580010B582B00E4C204602F02CFD23681A689A
:101F680012F0100F01D102B010BD002201921A68C0
:101F780001925B680193019B2046E38D9BB2054962
:101F88000A68C3F500731A440A6002F035FCEAE7F0
:101F9800541C0020481B002010B582B00E4C20466F
:101FA80002F008FD23681A6812F0100F01D102B080
:101FB80010BD002201921A6801925B680193019B8F
:101FC8002046E38D9BB205490A68C3F500731A449D
:101FD8000A6002F011FCEAE70C1C0020E81A002055
:101FE80008B5024802F074F808BD00BF580A00207E
:101FF80008B50268084B9A4200D008BD074A137812
:102008000133DBB21370052BF7D102F08DFF034BC0
:1020180000221A70F1E700BF00100040500A0020AB
:1020280038B5044602682F4B9A4204D022682E4BDA
:102038009A422BD038BD2D4B19684A1E586D2C4D2D
:102048002A4442605A6D08325A65DB6D9A4213D0B1
:10205800C1F50063B3F5007F12D2244B00221A6049
:102068005B6D234A1A60214B5B6D4FF4007219684F
:10207800204802F0FCFDD9E71C4B1A1D5A65E7E71A
:102088001A4B5B6D1A4A11441960ECE71A4B196830
:102098004A1E586D194C224442605A6D08325A65DE
:1020A800DB6D9A4213D0C1F50063B3F5007F12D2FD
:1020B800114B00221A605B6D104A1A600E4B5B6D63
:1020C8004FF4007219680E4802F0D1FDB2E70A4BCE
:1020D8001A1D5A65E7E7084B5B6D084A11441960F9
:1020E800ECE700BF0038014000440040481B0020D6
:1020F800E8120020541C0020E81A0020E80A0020FA
:102108000C1C00200120704708B503F013F91623B2
:1021180003604FF0FF3008BD08B54FF0FF31FFF7FF
:10212800F3FFFEE770B50C461646002506E0AFF350
:102138000080214601F8010B01350C46B542F6DB5B
:10214800304670BD70B50C461646002504E014F8FC
:10215800010BAFF300800135B542F8DB304670BDA6
:102168004FF0FF3070474FF400534B60002070472A
:10217800012070470020704710B503460C4A0D49EE
:102188000D48006840B10C4800680344521A934255
:1021980006D8094A136010BD0748084C0460F2E7E6
:1021A80003F0C8F80C2303604FF0FF30F3E700BFDB
:1021B80000C0002000040000540A0020B81F0020BE
:1021C8007047000000B587B000230293039304937F
:1021D8000593009301931548154A0260472242600F
:1021E800836041F28732C2600361836102F07AF84A
:1021F80098B94FF48053029302A90C4802F0AAF848
:1022080070B920230093802301936946074802F0A0
:1022180021F940B907B05DF804FBFFF7F1FCE8E7E6
:10222800FFF7EEFCEDE7FFF7EBFCF3E7A00A002071
:102238000004004000B583B00023009301930F48C9
:102248000F4A026047224260836040F2E732C26070
:10225800836102F047F850B900230093019369465F
:10226800064802F0F7F828B903B05DF804FBFFF759
:10227800C7FCF1E7FFF7C4FCF6E700BF580A0020E7
:102288000010004000B583B00368174A934205D098
:10229800164A934215D003B05DF804FB144BDA6973
:1022A80042F00202DA61DB6903F002030093009B4B
:1022B800002203211D2000F0F9FC1D2000F006FD7E
:1022C800E9E70B4BDA6942F01002DA61DB6903F0E7
:1022D80010030193019B00221146362000F0E6FC12
:1022E800362000F0F3FCD6E7000400400010004060
:1022F8000010024030B589B000230493059306937B
:1023080007930368344A934204D0344A934233D043
:1023180009B030BD324B9A6942F480429A619A6999
:1023280002F480420092009A9A6942F004029A618B
:102338009B6903F004030193019B4FF4007304931A
:102348000223059303230793264D04A9284600F08A
:10235800CBFF4FF48063049300240594069404A9EA
:10236800284600F0C1FF22462146252000F09EFCA9
:10237800252000F0ABFCCBE7194BDA6942F40032B8
:10238800DA61DA6902F400320292029A9A6942F03A
:1023980004029A619B6903F004030393039B0423DB
:1023A800049302230593032307930E4D04A928469B
:1023B80000F09AFF0823049300240594069404A9C6
:1023C800284600F091FF22462146262000F06EFCA8
:1023D800262000F07BFC9BE70038014000440040C9
:1023E80000100240000801400FB410B582B004AAE2
:1023F80052F8041B0192094C204602F0DBFE2046ED
:1024080002F0CEFFFF2382B22146054802F07CF994
:1024180002B0BDE8104004B0704700BFA81B002000
:10242800541C0020064B1A46002142F8041B5A652A
:102438009A6503F14C02DA65024A5A609A6070475D
:10244800481B0020E812002008B51248124B036010
:102458004FF4E133436000238360C36003610C22BF
:1024680042618361C36102F01FF978B9FFF7DAFFAF
:1024780008480268D36843F01003D360074B5B6DCC
:102488004FF40072196802F0F2FB08BDFFF7B8FBC1
:10249800ECE700BF541C002000380140481B002016
:1024A800064B1A46002142F8041B5A659A6503F147
:1024B8004C02DA65024A5A609A607047E81A0020AE
:1024C800E80A002008B51248124B03604FF4E133C4
:1024D800436000238360C36003610C22426183610F
:1024E800C36102F0E1F878B9FFF7DAFF084802683B
:1024F800D36843F01003D360074B5B6D4FF4007251
:10250800196802F0B4FB08BDFFF77AFBECE700BFDF
:102518000C1C002000440040E81A0020FFF750FE81
:102528000B480C490C4A002302E0D458C450043329
:10253800C4188C42F9D3094A094C002301E01360FE
:102548000432A242FBD302F0FBFEFFF79FFB704769
:1025580000000020C4060020C8B70008C4060020F8
:10256800B81F0020FEE7000010B504460E4B1A788D
:102578004FF47A73B3FBF2F30C4A1068B0FBF3F034
:1025880000F0B2FB68B90F2C01D901200AE0002243
:1025980021464FF0FF3000F089FB054B1C600020FE
:1025A80000E0012010BD00BF040000200000002052
:1025B8000800002008B5074A136843F010031360A9
:1025C800032000F061FB0F20FFF7CEFFFFF77AFC36
:1025D800002008BD00200240034A1168034B1B7805
:1025E8000B441360704700BF9C1C002004000020AF
:1025F800014B1868704700BF9C1C002038B5044682
:10260800FFF7F6FF0546B4F1FF3F02D0044B1B78F5
:102618001C44FFF7EDFF401BA042FAD338BD00BFB2
:102628000400002008B5436A9A6A12F0500F1ED1C0
:102638009A6A42F400729A621A68926802F46022F6
:10264800B2F5602F03D01846FFF788FA08BD1A7B49
:10265800002AF8D19A6A22F480729A629A6A12F46D
:10266800805FF0D19A6A42F001029A62EBE71B6A36
:102678001B6B9847EAE7704708B5406AFFF7FBFF0E
:1026880008BD704770B5044603681E685D6815F09C
:10269800200F17D016F0020F14D0826A12F0100F14
:1026A80003D1826A42F4007282629A6802F460225C
:1026B800B2F5602F33D02046FFF750FA23686FF049
:1026C80012021A6015F0800F22D016F0040F1FD0E6
:1026D800A36A13F0100F03D1A36A43F40053A36253
:1026E8002268936803F4E043B3F5E04F2ED05368B3
:1026F80013F4806F05D1936803F46023B3F5602F5A
:1027080021D0204600F08AFA23686FF00C021A6084
:1027180015F0400F02D016F0010F28D170BD227BB2
:10272800002AC8D15A6822F020025A60A36A23F40A
:102738008073A362A36A13F4805FBCD1A36A43F0D9
:102748000103A362B7E7237B002BDAD1536823F098
:1027580080035360A36A23F48053A362A36A13F42B
:10276800807FCED1A36A43F00103A362C9E7A36ABD
:1027780043F48033A3622046FFF783FF23686FF09A
:1027880001021A60CAE7704708B5406A836A43F0D5
:1027980040038362C36A43F00403C362FFF7F3FF95
:1027A80008BD000030B482B00022019290F82420C5
:1027B800012A00F08F800346012280F824204A680D
:1027C800062A2DD80468606B02EB8202053A4FF0A6
:1027D8001F0C0CFA02FC20EA0C000D6805FA02F244
:1027E800024362630A68092A38D91C68E06802EB68
:1027F80042021E3A4FF0070C0CFA02FC20EA0C00C9
:102808008D6805FA02F20243E2600A68103A012A6A
:1028180034D90020002283F8242002B030BC70474D
:102828000C2A0DD80568286B02EB8202233A1F2474
:10283800944020EA04000C68944020432863D1E7C0
:102848000568E86A02EB8202413A1F24944020EAB4
:1028580004000C6894402043E862C3E71C682069C0
:1028680002EB42024FF0070C0CFA02FC20EA0C00C3
:102878008D6805FA02F202432261C6E71A68164813
:10288800824205D09A6A42F020029A620120C1E78A
:10289800906810F4000F1BD1906840F4000090601D
:1028A8000A68102A01D00020B4E70C4A12680C49C3
:1028B800A1FB0212920C02EB82025200019202E08A
:1028C800019A013A0192019A002AF9D10020A1E760
:1028D80000209FE70220A0E700240140000000201C
:1028E80083DE1B4330B583B00023019303689A68E5
:1028F80012F0010F33D104469A6842F001029A603F
:10290800184B1B68184AA2FB03239B0C019302E097
:10291800019B013B0193019B002BF9D1FFF768FE56
:10292800054623689B6813F0010F16D1FFF760FE78
:10293800431B022BF5D923689B6813F0010FF0D1D4
:10294800A36A43F01003A362E36A43F00103E3625E
:10295800002384F82430012002E0002000E0002059
:1029680003B030BD0000002083DE1B43F8B50446E9
:102978000D46164601684448814259D0434B994256
:1029880056D094F82430012B7CD0012384F82430CD
:102998002046FFF7A7FF074600286ED1A16A21F459
:1029A800706121F0010141F48071A1622268374B06
:1029B8009A4244D0A36A23F48013A362536813F4A1
:1029C800806F05D0A36A23F4405343F48053A36275
:1029D800A36A13F4805F48D0E36A23F00603E36236
:1029E800002384F82430236A294A9A62236A294AF0
:1029F800DA62236A284A1A6323686FF002021A60AF
:102A08002268936843F480739360216833462A46AA
:102A18004C31206A00F0DEF923689A6802F46022DB
:102A2800B2F5602F24D09A6842F480129A6027E0A9
:102A3800154B5B6813F4702FA3D0012720E0A3F592
:102A480080635B6813F4702FB4D0A36A43F48013D7
:102A5800A3620D4B5B6813F4806FB9D0A36A23F4AB
:102A6800405343F48053A362B2E70023E362B7E71D
:102A78009A6842F4A0029A6002E0002384F82430A5
:102A88003846F8BD0227FBE7002401400028014032
:102A98002D260008812600089127000838B503680C
:102AA8009A6812F0010F01D1002038BD04469A68D7
:102AB80022F001029A60FFF79BFD054623689B6898
:102AC80013F0010F13D0FFF793FD431B022BF5D929
:102AD80023689B6813F0010FF0D0A36A43F010033A
:102AE800A362E36A43F00103E3620120DDE700200B
:102AF800DBE70000002800F0888070B50446836A90
:102B0800002B52D02046FFF7C9FFA36A13F0100329
:102B180075D1002873D1A26A22F4885222F00202E9
:102B280042F00202A2626268266839498E4242D0A7
:102B3800E1690A43217B42EA4102A568B5F5807F35
:102B480002D0012D3ED01D4694F814C0BCF1010FEF
:102B58003BD0716821F46941294371602568AE68EA
:102B68002C4931401143A960A168B1F5807F01D09B
:102B7800012902D12369013B1B052568E96A21F473
:102B880070010B43EB6223689968234B0B409A4210
:102B98002CD0A36A23F0120343F01003A362E36A64
:102BA80043F00103E36201202EE0C36280F8243081
:102BB800FEF720FDA6E7E169B1F5402FB9D14FF442
:102BC8000021B6E74FF48075BEE731B9A169013934
:102BD80045EA413141F40065BBE7A16A41F02001B3
:102BE800A162E16A41F00101E162B2E70023E36218
:102BF800A36A23F0030343F00103A36204E0A36A7A
:102C080043F01003A362012070BD0120704700BF8C
:102C1800003C0140FDF7E1FFFE0E1FFF704700007A
:102C2800002808DB0901C9B200F1604000F56140E5
:102C380080F80013704700F00F000901C9B2014B7A
:102C48001954704714ED00E000B500F00700C0F11A
:102C5800070CBCF1040F28BF4FF0040C031D062B12
:102C68000FD9C31E4FF0FF3E0EFA0CF021EA000107
:102C780099400EFA03FE22EA0E0241EA02005DF8CC
:102C880004FB0023EEE70000074AD36823F4E0635F
:102C98001B041B0C000200F4E060034343F0BF6315
:102CA80043F40033D360704700ED00E010B50446EC
:102CB800054BD868C0F30220FFF7C6FF014620463F
:102CC800FFF7AEFF10BD00BF00ED00E0002807DBF6
:102CD80000F01F02400901239340024A42F82030C5
:102CE800704700BF00E100E00138B0F1807F0BD2EF
:102CF8004FF0E0235861054AF02182F823100020A4
:102D0800986107221A6170470120704700ED00E0C2
:102D180030B40124056CAC40C56B6C60046863601A
:102D28004368102B05D0036899600368DA6030BCEB
:102D3800704703689A600368D960F8E700283AD0BA
:102D480010B4024600681D4B984229D81C4B034416
:102D58001C49A1FB03131B099B0013641A4BD36383
:102D6800022382F82130016821F47F5121F03001DB
:102D7800536894682343D4682343146923435469EC
:102D8800234394692343D46923430B4303600020FE
:102D98009063012382F8213082F8200010BC70472C
:102DA8000A4B03440749A1FB03131B099B00136447
:102DB800074BD363D4E70120704700BF07040240E4
:102DC800F8FFFDBFCDCCCCCC00000240F8FBFDBF26
:102DD8000004024038B5044690F82000012832D09B
:102DE800012084F8200094F82100C0B2012804D002
:102DF800002384F82030022038BD022084F8210006
:102E08000020A0632568286820F00100286020467B
:102E1800FFF77EFFE36A5BB12268136843F00E0395
:102E280013602268136843F0010313600020E3E78E
:102E38002268136823F0040313602268136843F0C0
:102E48000A031360EDE70220D6E7034690F8212035
:102E5800D2B2022A06D004228263002280F82020FF
:102E68000120704701680A6822F00E020A600168B2
:102E78000A6822F001020A60026CC06B012101FAA3
:102E880002F2426083F82110002083F82000704786
:102E980008B590F82130DBB2022B03D004238363FA
:102EA800012008BD0268136823F00E03136002684E
:102EB800136823F00103136003684C4A93424ED908
:102EC800783A934224D01432934230D01432934249
:102ED8002FD0143293422FD0143293422FD0143271
:102EE80093422FD0143293422FD002F5627293424C
:102EF8002ED0143293422DD0143293422CD0143257
:102F0800934202D04FF4803203E04FF4805200E045
:102F18000122374B5A60012380F82130002380F8C2
:102F28002030436B002B5ED098470020B9E7102271
:102F3800EFE74FF48072ECE74FF48052E9E74FF483
:102F48008032E6E74FF48012E3E74FF08072E0E763
:102F58000122DEE71022DCE74FF48072D9E7254A28
:102F6800934224D01432934225D01432934224D071
:102F78001432934224D01432934224D01432934210
:102F880024D01432934224D002F56272934223D0A3
:102F98001432934222D01432934221D014329342F5
:102FA80002D04FF4803203E04FF4805200E0012257
:102FB800114B5A60AFE71022FAE74FF48072F7E737
:102FC8004FF48052F4E74FF48032F1E74FF4801267
:102FD800EEE74FF08072EBE70122E9E71022E7E71E
:102FE8004FF48072E4E700205BE700BF80000240F6
:102FF80000040240080002400000024038B5C36BDC
:103008001A6804682568016C04238B40134200F099
:103018009B8015F0040F00F09780236813F0200FB1
:1030280003D1236823F00403236003689A4A934278
:1030380046D9783A934224D01432934228D0143295
:10304800934227D01432934227D01432934227D088
:103058001432934227D01432934227D002F5627279
:10306800934226D01432934225D01432934224D06E
:103078001432934202D04FF4802203E04FF480428E
:1030880000E00422854B5A60C36A03B1984738BDF3
:103098004022F7E74FF48062F4E74FF48042F1E70B
:1030A8004FF48022EEE74FF48002EBE74FF08062A6
:1030B800E8E70422E6E74022E4E74FF48062E1E72C
:1030C800774A934224D01432934225D01432934243
:1030D80024D01432934224D01432934224D0143290
:1030E800934224D01432934224D002F56272934260
:1030F80023D01432934222D01432934221D0143276
:10310800934202D04FF4802203E04FF4804200E063
:103118000422644B5A60B7E74022FAE74FF4806212
:10312800F7E74FF48042F4E74FF48022F1E74FF4D9
:103138008002EEE74FF08062EBE70422E9E74022E5
:10314800E7E74FF48062E4E702238B40134200F084
:10315800AB8015F0020F00F0A780236813F0200F52
:1031680006D1236823F00A032360012380F8213065
:103178000368494A93424BD9783A934224D014328F
:1031880093422DD0143293422CD0143293422CD037
:10319800143293422CD0143293422CD014329342DE
:1031A8002CD002F5627293422BD0143293422AD06B
:1031B8001432934229D01432934202D04FF4003291
:1031C80003E04FF4005200E00222344B5A6000231F
:1031D80080F82030836A002B3FF459AF984756E7B0
:1031E8002022F2E74FF40072EFE74FF40052ECE7C9
:1031F8004FF40032E9E74FF40012E6E74FF00072AF
:10320800E3E70222E1E72022DFE74FF40072DCE780
:10321800234A934224D01432934225D01432934245
:1032280024D01432934224D01432934224D014323E
:10323800934224D01432934224D002F5627293420E
:1032480023D01432934222D01432934221D0143224
:10325800934202D04FF4003203E04FF4005200E0F2
:103268000222104B5A60B2E72022FAE74FF40072AC
:10327800F7E74FF40052F4E74FF40032F1E74FF468
:103288000012EEE74FF00072EBE70222E9E7202296
:10329800E7E74FF40072E4E78000024000040240D0
:1032A800080002400000024008238B4013423FF40C
:1032B800EEAE15F0080F3FF4EAAE236823F00E03D4
:1032C8002360026CC16B012303FA02F24A60836334
:1032D80080F82130002380F82030036B002B3FF466
:1032E800D6AE9847D3E600BF70B582B00024A44696
:1032F800ACE0854DAB4210D007D9844DAB420CD021
:1033080005F58035AB4208D013E0A5F58015AB4232
:1033180003D005F57025AB4207D18B68002B5FD031
:10332800012B58D04261082403E0A5F58015AB4273
:10333800F3D0BEF1FF0F55D806464FEA8C0233682A
:103348000F25954023EA050304FA02F2134333607C
:103358004B6813F0805F77D06D4B9A6942F0010299
:103368009A619B6903F001030193019B4FEA9C0258
:10337800951C684B53F825600CF00305AD000F232E
:10338800AB4026EA0306644B984232D003F58063CB
:10339800984200F0978003F58063984200F094808B
:1033A80003F58063984200F0918003F580639842AA
:1033B80000F08E8003F58063984218D0062319E048
:1033C800CC68B6E7CC680434B3E7CC680834B0E717
:1033D800CC680C34ADE702610824AAE70024A8E70A
:1033E8000424A6E7061DACF108029200A7E705230E
:1033F80000E00023AB4033430232464D45F822300B
:103408004B6813F4801F65D0444A936843EA0E035F
:1034180093604B6813F4001F62D0404AD36843EAB4
:103428000E03D3604B6813F4003F5FD03B4A5368E8
:1034380043EA0E0353604B6813F4803F5CD0374A6D
:10344800136843EA0E0313600CF1010C0B6833FA9E
:103458000CF257D0012202FA0CF203EA020E32EA09
:103468000303F1D14B68122B3FF643AF122B3FF603
:1034780060AF01A555F823F023330008C9330008CD
:10348800D3330008E53300083B3300083B3300081A
:103498003B3300083B3300083B3300083B3300084C
:1034A8003B3300083B3300083B3300083B3300083C
:1034B8003B3300083B3300083B330008CD3300089A
:1034C800D9330008012395E7022393E7032391E703
:1034D80004238FE7114A936823EA0E03936098E761
:1034E8000E4AD36823EA0E03D3609BE70B4A53685E
:1034F80023EA0E0353609EE7084A136823EA0E0383
:103508001360A1E702B070BD000022100000311066
:103518000010024000000140000801400004014082
:103528008368194201D001207047002070470AB112
:1035380001617047090401617047000082B0084BBF
:103548001B68084AA2FB03235B0A00FB03F30193F1
:1035580000BF019B5A1E0192002BF9D102B070479F
:1035680000000020D34D6210002800F0F18170B5F2
:1035780082B00446036813F0010F2CD0994B5B68A6
:1035880003F00C03042B1DD0964B5B6803F00C036F
:10359800082B12D06368B3F5803F41D0002B55D17A
:1035A80003F1804303F504331A6822F480321A6069
:1035B8001A6822F480221A6037E08A4B5B6813F499
:1035C800803FE7D0874B1B6813F4003F03D0636844
:1035D800002B00F0BF81236813F0020F75D0814BD8
:1035E8005B6813F00C0F5FD07E4B5B6803F00C0335
:1035F800082B54D02369002B00F08A807A4B0122D3
:103608001A60FEF7F5FF0546764B1B6813F0020FAC
:1036180075D1FEF7EDFF401B0228F5D903209EE186
:10362800704A136843F480331360636843B3FEF74A
:10363800DFFF05466B4B1B6813F4003FCBD1FEF749
:10364800D7FF401B6428F5D9032088E1B3F5A02FE4
:1036580009D0644B1A6822F480321A601A6822F47E
:1036680080221A60E1E703F18043A3F53C331A682E
:1036780042F480221A601A6842F480321A60D4E751
:10368800FEF7B6FF0546574B1B6813F4003FA2D060
:10369800FEF7AEFF401B6428F5D903205FE1514BCC
:1036A8005B6813F4803FA5D14E4B1B6813F0020FE3
:1036B80003D02369012B40F04F814A4A136823F055
:1036C800F803616943EAC1031360236813F0080F24
:1036D80033D0A369002B5CD0434B0122C3F880246C
:1036E800FEF786FF05463F4B5B6A13F0020F21D1B8
:1036F800FEF77EFF401B0228F5D903202FE1394A47
:10370800136823F0F803616943EAC1031360DCE737
:10371800354B00221A60FEF76BFF0546314B1B68DC
:1037280013F0020FD1D0FEF763FF401B0228F5D932
:10373800032014E10120FFF701FF236813F0040FB1
:1037480000F09680274BDB6913F0805F34D1254B5E
:10375800DA6942F08052DA61DB6903F08053019341
:10376800019B0125214B1B6813F4807F26D0E36859
:10377800012B3DD0002B53D103F1804303F50433D3
:103788001A6A22F001021A621A6A22F004021A6204
:1037980033E0154B0022C3F88024FEF729FF0546C5
:1037A800104B5B6A13F0020FC7D0FEF721FF401BD6
:1037B8000228F5D90320D2E00025D3E70B4A136885
:1037C80043F480731360FEF713FF0646074B1B682C
:1037D80013F4807FCBD1FEF70BFF801B6428F5D94B
:1037E8000320BCE00010024000004242007000408C
:1037F8005F4A136A43F001031362E36833B3FEF7C9
:10380800F7FE06465A4B1B6A13F0020F2FD1FEF73C
:10381800EFFE801B41F288339842F3D903209EE0E3
:10382800052B09D0524B1A6A22F001021A621A6A51
:1038380022F004021A62E0E74D4B1A6A42F00402D1
:103848001A621A6A42F001021A62D6E7FEF7D0FE3F
:103858000646474B1B6A13F0020F08D0FEF7C8FE56
:10386800801B41F288339842F3D9032077E0E5B909
:10387800E369002B72D03E4A526802F00C02082A13
:1038880056D0022B17D03B4B00221A66FEF7B0FE2B
:103898000446374B1B6813F0007F47D0FEF7A8FE9D
:1038A800001B0228F5D9032059E0314AD36923F0D7
:1038B8008053D361DCE72F4B00221A66FEF798FE8F
:1038C80005462B4B1B6813F0007F06D0FEF790FED1
:1038D800401B0228F5D9032041E0236AB3F5803F55
:1038E8001AD023494B6823F47413226A606A02438E
:1038F80013434B601F4B01221A66FEF779FE0446FC
:103908001B4B1B6813F0007F0ED1FEF771FE001BE6
:103918000228F5D9032022E0154A536823F400331E
:10392800A1680B435360DCE7002018E0002016E094
:10393800012B16D00E4B5B6803F48031226A91424A
:1039480011D103F47013626A93420ED1002006E08D
:1039580001207047012002E0012000E0002002B0B1
:1039680070BD0120FBE70120F9E70120F7E700BF60
:1039780000100240000042420F4B5B6803F00C024B
:10398800082A01D00D487047C3F383420C49885C6C
:1039980013F4803F0BD0084B5B68C3F34043094ADC
:1039A800D35C064A02FB00F0B0FBF3F07047064B0D
:1039B80003FB00F0704700BF0010024000127A00BD
:1039C800B8B30008B4B3000800093D00002800F0AF
:1039D800A08070B50D460446524B1B6803F00703E0
:1039E8008B420BD24F4A136823F007030B43136033
:1039F800136803F007038B4240F08D80236813F0AF
:103A0800020F17D013F0040F04D0474A536843F449
:103A1800E0635360236813F0080F04D0424A5368E8
:103A280043F460535360404A536823F0F003A1689D
:103A38000B435360236813F0010F31D06368012BE7
:103A480020D0022B25D0384A126812F0020F64D019
:103A580035494A6822F0030213434B60FEF7C8FD5C
:103A68000646314B5B6803F00C036268B3EB820FC8
:103A780016D0FEF7BDFD801B41F288339842F0D97D
:103A8800032045E0284A126812F4003FE0D10120E3
:103A98003EE0254A126812F0007FD9D1012037E0B4
:103AA800204B1B6803F00703AB420AD91D4A136871
:103AB80023F007032B431360136803F00703AB429B
:103AC8002DD1236813F0040F06D0174A536823F446
:103AD800E063E1680B435360236813F0080F07D0D5
:103AE800114A536823F46053216943EAC1035360C0
:103AF800FFF742FF0C4B5B68C3F303130B4AD35C1D
:103B0800D8400B4B18600B4B1868FEF72DFD0020B2
:103B180070BD012070470120FAE70120F8E7012075
:103B2800F6E700BF0020024000100240A4B30008DE
:103B38000000002008000020014B1868704700BFF3
:103B48000000002008B5FFF7F7FF044B5B68C3F3DC
:103B58000223034AD35CD84008BD00BF00100240CE
:103B68009CB3000808B5FFF7E7FF044B5B68C3F395
:103B7800C223034AD35CD84008BD00BF00100240EE
:103B88009CB3000870B582B00446036813F0010FB7
:103B980036D03F4BDB6913F0805F49D13C4BDA6983
:103BA80042F08052DA61DB6903F080530193019B94
:103BB8000125384B1B6813F4807F3BD0344B1B6ABC
:103BC80013F4407313D0626802F440729A420ED024
:103BD8002F4A136A23F440702F490126C1F8406424
:103BE8000026C1F84064106213F0010F36D1284A4C
:103BF800136A23F4407361680B431362002D3ED1AE
:103C0800236813F0020F06D0214A536823F4404377
:103C1800A1680B435360236813F0100F34D01C4A7B
:103C2800536823F4800361690B43536000202CE040
:103C38000025BEE7174A136843F480731360FEF744
:103C4800D7FC0646134B1B6813F4807FB6D1FEF7EA
:103C5800CFFC801B6428F5D9032016E0FEF7C8FCCA
:103C680006460B4B1B6A13F0020FC0D1FEF7C0FCCF
:103C7800801B41F288339842F3D9032005E0D369C9
:103C880023F08053D361BBE7002002B070BD00BFB2
:103C98000010024000700040000042422DE9F04749
:103CA80082B00546884617461E46FEF7A1FC0A9BC9
:103CB8001B1A03EB0609FEF79BFC8246284B1B6880
:103CC800C3F3CB3309FB03F301932B689C6838EAF1
:103CD80004040CBF01230023BB423DD0B6F1FF3FD3
:103CE800F3D0FEF785FCA0EB0A00484507D2019AFD
:103CF80002B14A46019B013B01939146E5E72A68D8
:103D0800536823F0E00353606B68B3F5827F0BD0F0
:103D1800AB6AB3F5005F14D0012385F85130002356
:103D280085F85030032018E0AB68B3F5004F02D097
:103D3800B3F5806FECD12A68136823F04003136051
:103D4800E6E72A68136823F4005313602A681368A7
:103D580043F400531360DFE7002002B0BDE8F087AA
:103D68000000002010B582B004460B4600920022E5
:103D78008021FFF793FF08B902B010BD636D43F0CF
:103D8800200363650320F7E7002856D010B50446E2
:103D9800436A33B94368B3F5827F05D00023C36112
:103DA80002E00023036143610023A36294F85130C9
:103DB800002B3CD0022384F851302268136823F08A
:103DC80040031360636803F48273A26802F4044238
:103DD8001343E26802F400621343226902F002020C
:103DE8001343626902F001021343A26902F40072EC
:103DF8001343E26902F038021343226A02F0800298
:103E08001343A26A02F40052216813430B60638BC8
:103E1800226803F0040353602268D36923F4006323
:103E2800D36100206065012384F8513010BD84F807
:103E380050302046FDF7E4FFBCE7012070472DE92C
:103E4800F04383B01D4690F85030012B00F0D1802C
:103E5800044688469146012380F85030FEF7C8FB97
:103E6800074694F85160F6B2012E40F0BA80B8F1D6
:103E7800000F00F0B780B9F1000F00F0B380032302
:103E880084F8513000236365C4F83080A4F8349076
:103E9800A4F83690A363A387E38763642364A368C5
:103EA800B3F5004F1ED023681A6812F0400F03D1F3
:103EB8001A6842F040021A60E368B3F5006F1CD03C
:103EC800636813B1B9F1010F55D1226B23681278D9
:103ED8001A73236B01332363E38E9BB2013B9BB2BE
:103EE800E38648E02268136823F0400313602268E1
:103EF800136843F480431360D5E7636813B1B9F1DD
:103F0800010F15D1226B23681288DA60236B023304
:103F18002363E38E9BB2013B9BB2E38608E0FEF786
:103F280067FBC01BA84202D3B5F1FF3F15D1A5B16D
:103F3800E38E9BB2002B3CD023689A6812F0020FE4
:103F4800EDD0226B1288DA60236B02332363E38E91
:103F58009BB2013B9BB2E386EAE7012384F8513028
:103F680003263FE0FEF744FBC01BA84202D3B5F18D
:103F7800FF3F19D1C5B1E38E9BB2D3B123689A68CC
:103F880012F0020FEED0226B12781A73236B0133F2
:103F98002363B4F836C01FFA8CFC0CF1FF3C1FFAFF
:103FA8008CFCA4F836C0E6E7012384F851300326D8
:103FB80018E03A4629462046FFF7D4FE08B12023E8
:103FC8006365A36833B901932368DA6801929B6833
:103FD8000193019B636D2BB9012384F851300026AE
:103FE80000E00226002384F85030304603B0BDE8D4
:103FF800F0830226F9E710B4036A046A24F0010486
:104008000462846924F0F00C4CEA021223F00A03DB
:104018000B438261036210BC704710B4036A046AE0
:1040280024F010040462846924F4704C4CEA0232CF
:1040380023F0A00343EA01138261036210BC7047B6
:10404800836823F070030B4343F0070383607047D2
:1040580090F83D30DBB2012B2FD1022380F83D30A0
:104068000268D36843F00103D3600368154A93429A
:1040780018D002F50062934214D0B3F1804F11D0EA
:10408800A2F5983293420DD002F58062934209D08E
:1040980002F58062934205D01A6842F001021A6064
:1040A800002070479A6802F00702062A07D01A68AB
:1040B80042F001021A60002070470120704700207A
:1040C800704700BF002C0140704770477047704729
:1040D80010B5044603681A6912F0020F11D0DA68A5
:1040E80012F0020F0DD06FF002021A61012303775C
:1040F80003689B6913F0030F70D0FFF7E6FF0023F6
:10410800237723681A6912F0040F12D0DA6812F0C4
:10411800040F0ED06FF004021A610223237723687C
:104128009B6913F4407F5FD02046FFF7CEFF002342
:10413800237723681A6912F0080F12D0DA6812F090
:10414800080F0ED06FF008021A6104232377236842
:10415800DB6913F0030F4ED02046FFF7B6FF0023AC
:10416800237723681A6912F0100F12D0DA6812F058
:10417800100F0ED06FF010021A61082323772368FE
:10418800DB6913F4407F3DD02046FFF79EFF0023F4
:10419800237723681A6912F0010F03D0DA6812F046
:1041A800010F36D123681A6912F0800F03D0DA683C
:1041B80012F0800F34D123681A6912F0400F03D02F
:1041C800DA6812F0400F32D123681A6912F0200F12
:1041D80003D0DA6812F0200F30D110BDFFF774FF5A
:1041E8002046FFF773FF8AE72046FFF76DFF20465A
:1041F800FFF76CFF9BE72046FFF766FF2046FFF7B7
:1042080065FFACE72046FFF75FFF2046FFF75EFF3C
:10421800BDE76FF001021A612046FDF7E9FEC1E72C
:104228006FF080021A61204600F053F9C3E76FF07F
:1042380040021A612046FFF74AFFC5E76FF02002E7
:104248001A61204600F044F9C7E700000368244AD1
:10425800904212D002F5006290420ED0B0F1804F29
:104268000BD0A2F59832904207D002F580629042B6
:1042780003D002F58062904203D123F070034A68AC
:104288001343174A904212D002F5006290420ED0B2
:10429800B0F1804F0BD0A2F59832904207D002F5CA
:1042A8008062904203D002F58062904203D123F4E9
:1042B8004073CA68134323F080034A6913430360B9
:1042C8008B68C3620B688362054B984203D003F581
:1042D8000063984201D10B6903630123436170476E
:1042E800002C014040B310B5044690F83D30F3B1BE
:1042F800022384F83D30214651F8040BFFF7A6FF4E
:10430800012384F8463084F83E3084F83F3084F83E
:10431800403084F8413084F8423084F8433084F8DF
:10432800443084F8453084F83D30002010BD80F8D2
:104338003C30FDF7A7FFDBE70120704710B4846825
:1043480024F47F4C42EA03220A4342EA0C028260C8
:1043580010BC704790F83C30012B78D010B504465B
:10436800012380F83C30022380F83D3002689368CE
:1043780023F47F4323F0770393600B68602B4CD0C2
:1043880029D8402B54D00CD9502B22D1CA6849685F
:104398000068FFF730FE50212068FFF751FE00202B
:1043A80005E0202B0DD009D9302B0AD0012001239C
:1043B80084F83D30002384F83C3010BD0BB1102B3D
:1043C80005D119462068FFF73BFE0020EFE70120E2
:1043D800EDE70120EBE7B3F5805F34D0B3F5005F7C
:1043E8000CD1CB684A6889680068FFF7A7FF226884
:1043F800936843F4804393600020D8E7702B24D15E
:10440800CB684A6889680068FFF798FF2268936854
:1044180043F0770393600020C9E7CA6849680068D9
:10442800FFF7FBFD60212068FFF70AFE0020BEE7CA
:10443800CA6849680068FFF7DEFD40212068FFF779
:10444800FFFD0020B3E70020B1E70120AFE702201D
:104458007047000090F83C20012A34D010B403467D
:10446800012280F83C20022280F83D200268506832
:10447800946820F0700C086840EA0C0050601A68D4
:104488001248824212D000F5006082420ED0B2F18A
:10449800804F0BD0A0F59830824207D000F580609D
:1044A800824203D000F58060824204D124F0800467
:1044B800496821439160012283F83D20002083F858
:1044C8003C0010BC70470220704700BF002C014020
:1044D80070477047026802F10C0353E8003F23F469
:1044E80090730C3242E800310029F3D1026802F1DE
:1044F800140353E8003F23F00103143242E800316B
:104508000029F3D1036B012B05D0202380F842301A
:10451800002303637047026802F10C0353E8003F6D
:1045280023F010030C3242E800310029F3D1ECE704
:1045380090F84130DBB2212B01D00220704783680C
:10454800B3F5805F17D0036A5A1C02621A780368B1
:104558005A60C38C9BB2013B9BB2C3844BB90268BF
:10456800D36823F08003D3600268D36843F0400324
:10457800D360002070470369002BE4D1036A1B88CD
:104588000268C3F308035360036A02330362E0E777
:1045980010B504460268136923F44053C1680B43FD
:1045A800136183680269134342691A430168CB683F
:1045B80023F4B05323F00C031343CB600268536910
:1045C80023F4407381690B4353610268134B9A4289
:1045D80020D0FFF7B7FA024602EB820202EB820212
:1045E80063689B00B2FBF3F20D48A0FB0231490956
:1045F800642303FB11231B013233A0FB03035B0974
:1046080003F0F00202EB011203F00F0321681344D8
:104618008B6010BDFFF7A6FA0246DDE700380140BF
:104628001F85EB512DE9F84305460F461646994676
:10463800DDF820802B681C6837EA04040CBF0124CD
:104648000024B4422DD1B8F1FF3FF3D0B8F1000FE8
:1046580005D0FDF7CDFFA0EB09004045EAD92A684F
:1046680002F10C0353E8003F23F4D0730C3242E804
:1046780000310029F3D12A6802F1140353E8003FFE
:1046880023F00103143242E800310029F3D120233A
:1046980085F8413085F84230002385F84030032002
:1046A80000E00020BDE8F88360B310B5044690F838
:1046B800413013B3242384F841302268D36823F4AB
:1046C8000053D3602046FFF763FF2268136923F481
:1046D800904313612268536923F02A0353612268C7
:1046E800D36843F40053D36000206064202384F827
:1046F800413084F84230606310BD80F84030FDF7E7
:10470800F9FDD7E7012070472DE9F04182B01E4638
:1047180090F84130DBB2202B4BD104460D46904631
:1047280000294AD00AB9012044E000234364212328
:1047380080F84130FDF75CFF0746A4F82480A4F810
:104748002680A368B3F5805F02D04FF000080FE021
:104758002369FBB14FF000080AE038F8023B2268F1
:10476800C3F308035360E28C92B2013A92B2E28436
:10477800E38C9BB28BB100963B46002280212046F9
:10478800FFF750FFD8B9002DE7D015F8012B2368A3
:104798005A60E8E7A8460025EAE700963B4600226B
:1047A80040212046FFF73EFF58B9202384F84130C6
:1047B80000E0022002B0BDE8F0810120FAE7032002
:1047C800F8E70320F6E7704708B50168CA6822F0E1
:1047D8004002CA60202280F84120FFF7F4FF002041
:1047E80008BD7047704708B5406A0023C385C38475
:1047F800FFF7F8FF08BD000010B50446226802F173
:104808000C0353E8003F23F490730C3242E8003164
:104818000029F3D1226802F1140353E8003F23F082
:104828000103143242E800310029F3D1236B012B34
:104838001CD023685B6913F0400F2ED0226802F168
:10484800140353E8003F23F04003143242E80031D8
:104858000029F3D1E36BB3B1154A5A63E06BFEF755
:1048680017FB18B3E06B436B98471FE0226802F10F
:104878000C0353E8003F23F010030C3242E80031E8
:104888000029F3D1D5E70023E385202284F84220CC
:1048980023632046FDF7C4FB08E00023E3852022BC
:1048A80084F8422023632046FDF7BAFB002010BDA0
:1048B800BD48000808B5406A0023C385202280F857
:1048C80042200363FDF7ACFB08BD704790F8423007
:1048D800DBB2222B69D18368B3F5805F4FD0826A3F
:1048E800B3F5805F04D0002B56D10369002B53D158
:1048F80003685B681370836A01338362C38D9BB25C
:10490800013B9BB2C385002B51D100B583B002682F
:10491800D36823F02003D3600268D36823F480733C
:10492800D3600268536923F001035361202380F8A0
:10493800423000234363036B012B33D1002303630D
:10494800026802F10C0353E8003F23F010030C3215
:1049580042E800310029F3D103681A6812F0100FF9
:1049680006D0002201921A6801925B680193019BAC
:10497800818DFFF7AAFF002003B05DF804FB0269F0
:10498800002AACD1826A03685B68C3F3080313800A
:10499800836A02338362B1E703685B6803F07F03CD
:1049A8001370A8E7FFF71DFFE5E702207047002016
:1049B8007047000010B582B0044602681368D068DA
:1049C800516913F00F0F09D113F0200F0CD010F01C
:1049D800200F09D02046FFF779FF16E011F00101FA
:1049E80015D110F4907F12D1216B012979D013F0E1
:1049F800800F03D010F0800F40F0138113F0400FA8
:104A080003D010F0400F40F0108102B010BD13F039
:104A1800010F06D010F4807F03D0626C42F00102CF
:104A2800626413F0040F04D019B1626C42F0020200
:104A3800626413F0020F04D019B1626C42F00402F0
:104A4800626413F0080F07D010F0200F00D119B1DD
:104A5800626C42F008026264626C002AD5D013F0DE
:104A6800200F02D010F0200F29D123685B6903F0D2
:104A78004003626C12F0080F00D163B32046FFF7C1
:104A880029FD23685B6913F0400F20D0226802F1EA
:104A9800140353E8003F23F04003143242E8003186
:104AA8000029F3D1E36B73B1624A5A63E06BFEF7F6
:104AB800EFF90028A9D0E06B436B9847A5E720469B
:104AC800FFF704FFD1E72046FFF78CFE9DE720465D
:104AD800FFF788FE99E72046FFF784FE002363640A
:104AE80093E713F0100F82D010F0100F3FF47FAF50
:104AF800002301931368019353680193019B536941
:104B080013F0400F51D0E26B13685B689BB2002B27
:104B18003FF47BAFA18D99427FF677AFE385936928
:104B2800202B37D0226802F10C0353E8003F23F40E
:104B380080730C3242E800310029F3D1226802F177
:104B4800140353E8003F23F00103143242E8003114
:104B58000029F3D1226802F1140353E8003F23F03F
:104B68004003143242E800310029F3D1202384F8AD
:104B7800423000232363226802F10C0353E8003F0C
:104B880023F010030C3242E800310029F3D1E06B26
:104B9800FEF75BF902236363A18DE38D9BB2C91A0B
:104BA80089B22046FFF791FE2FE7A18DE38D9BB2D6
:104BB800C91A89B2E38D9BB2002B3FF426AF0029B6
:104BC8003FF423AF226802F10C0353E8003F23F4BB
:104BD80090730C3242E800300028F3D1226802F1C9
:104BE800140353E8003F23F00103143242E8003075
:104BF8000028F3D1202384F842300023236322685D
:104C080002F10C0353E8003F23F010030C3242E892
:104C180000300028F3D1022363632046FFF755FED6
:104C2800F3E62046FFF784FCEFE62046FFF7CCFDCD
:104C3800EBE600BFEF47000881628285C28500234A
:104C48004364222380F84230036923B10268D368A1
:104C580043F48073D3600268536943F001035361DE
:104C68000268D36843F02003D3600020704708B57A
:104C780090F84230DBB2202B08D149B10AB90120A3
:104C880008BD00230363FFF7D7FFF9E70220F7E722
:104C98000120F5E710B50446836800799847E37862
:104CA80013F0070F02D0238801332380E378B0EB99
:104CB800D31F13D01A46C3F3C203013303F007030B
:104CC80063F3C502E270022B0CD9D3B260F3C713A9
:104CD800E370DBB26FF3C503E37003E0E3786FF3CF
:104CE800C503E370E37803F00703052B00F2E480C3
:104CF800DFE813F00600260050009C00E200C40024
:104D0800E378C3F38012B2EBD31F05D0A37808224F
:104D180062F30713A370D3E0A3786FF30713A370AC
:104D2800E3680BB12046984700232380A37801222B
:104D380062F30303A370E37862F30203E370BFE056
:104D4800E378C3F38012B2EBD31F10D0A37801220B
:104D580062F30713A37023690BB120469847002319
:104D68002380E378022262F30203E370A8E0238839
:104D7800C82B40F2A580A378052262F30713A3701D
:104D8800236A0BB120469847E378052262F30203B1
:104D9800E37095E0E378C3F38012B2EBD31F0FD032
:104DA80023883C2B40F28C80A37803F00F03012B5F
:104DB80026D0022B2FD0E3786FF30203E3707FE055
:104DC800A3786FF30713A370E3680BB120469847E5
:104DD800A37803F00F030F2B06D0A37803F00F027C
:104DE800013262F30303A37063690BB1204698474D
:104DF80000232380E378032262F30203E3705FE079
:104E0800A378032262F30713A370A369002BD2D0FF
:104E180020469847CFE7A378042262F30713A370CC
:104E2800E369002BC7D020469847C4E7E378C3F36B
:104E38008012B2EBD31F18D0A378012262F30713B4
:104E4800A37023690BB12046984723883B2B07D8CA
:104E580000232380E378022262F30203E3702FE049
:104E6800E3786FF30203E3702AE023883C2B27D909
:104E7800E378012262F30203E37021E0E378C3F3ED
:104E88008012B2EBD31F0DD0A378012262F307136F
:104E9800A37023690BB120469847E3786FF30203A8
:104EA800E3700DE0A378062262F30713A370636A28
:104EB80033B12046984703E0E3786FF30203E370C9
:104EC80010BDF8B504460E4617461D462C22002193
:104ED80000F08CF9A378082262F30713A370A66088
:104EE8002846B047E37860F3C713E370DBB267F393
:104EF8008613E3702571F8BD023100EB8100426032
:104F080070470000074B1A68134600E09B6A23B1FC
:104F18008342FBD14FF0FF3070478262014B18602B
:104F280000207047A01C002010B5054B1C6803E04A
:104F38002046FFF7AFFEA46A002CF9D110BD00BFD0
:104F4800A01C0020024A0349034800F0C9B800BF6A
:104F58000C00002019780008200000200C4B416844
:104F680010B59942044601D002F052FCA168094BE1
:104F7800994202D0204602F04BFCE168064B994268
:104F880004D02046BDE8104002F042BC10BD00BF6E
:104F9800A41C00200C1D0020741D00202DE9F843DE
:104FA80000250423304C314A3149DFF8C890DFF836
:104FB800C880324F324E116004F15C002946082245
:104FC800C4E90335C4E90055C4E90555A56065661B
:104FD80000F00CF904F15800C4E90749C4E909874D
:104FE800E66200F0D5F9274B2946082204F1C400EF
:104FF8006367C4E91A55C4E91E552567C4F8CC503F
:10500800C4F8805000F0F2F804F1680304F1C0001D
:10501800C4F88430C4E92298C4E9247600F0B8F9C9
:10502800194B294604F596700822C4F8DC30C4E907
:105038003455C4E93855C4F8D850C4F83451C4F8C4
:10504800E85000F0D3F804F1D003C4E93D87C4F870
:10505800F09004F59470C4F8FC60C4F8EC30BDE836
:10506800F84300F095B900BFA41C0020DC1D002007
:105078004D4F00082D51000851510008915100086A
:10508800B5510008090001001200020010B50446DD
:105098000A4800F081F9636B23B9094B094A1B6878
:1050A800626323B1BDE81040044800F077B9FFF708
:1050B80075FFBDE81040014800F070B9EC1D0020F4
:1050C800DC1D0020654F0008014800F065B900BFED
:1050D800EC1D0020014800F061B900BFEC1D002064
:1050E8002DE9F8434FF0000980460F461646D6E9E9
:1050F8000154013D10D4A389013D012B08D9B4F90D
:105108000E30013304D021464046B84749EA000929
:105118006B1C04F16804EED13668002EE7D14846CE
:10512800BDE8F88310B50C46B1F90E1000F0D6F8BA
:10513800002803DB236D0344236510BDA38923F4F2
:105148008053A38110BD00BF2DE9F0410C46B1F991
:105158000C101F46CB05054616460BD421F480518A
:10516800A1813B4632462846B4F90E10BDE8F0410D
:1051780000F0CAB8B4F90E100223002200F098F823
:10518800B4F90C10EAE700BF10B50C46B1F90E10DF
:1051980000F08EF8B4F90C30421C0EBF23F4805393
:1051A80043F480532065A38110BD00BFB1F90E10F0
:1051B80000F06CB88C4630B504466FF000451346D5
:1051C800084A9BB01068084A6946039262460295ED
:1051D80005950094049400F03FFD0022009B1A708E
:1051E8001BB030BD180000200802FFFF70B586070D
:1051F80047D0541E002A3ED00346CAB201E0013C03
:1052080039D303F8012B9D07F9D1032C2CD9CDB242
:1052180005EB05250F2C1A4605EB054534D9A4F1F5
:10522800100C2CF00F0603F1100EB6444FEA1C1CAC
:10523800156055609560D56010327245F8D10CF153
:10524800010214F00C0F03EB021204F00F0C13D040
:10525800ACF1040323F003030433134442F8045B62
:105268009A42FBD10CF003042CB1C9B21C4403F8D8
:10527800011B9C42FBD170BD64461346002CF4D13F
:10528800F9E703461446C0E7A446E1E7002238B52B
:10529800064D044608462A60FCF762FF431C00D00E
:1052A80038BD2B68002BFBD0236038BDE01D0020E3
:1052B80038B50C46114600228446074D20462A6020
:1052C8001A466446FCF756FF431C00D038BD2B68CD
:1052D800002BFBD0236038BDE01D002038B50C46FC
:1052E800114600228446074D20462A601A46644625
:1052F800FCF718FF431C00D038BD2B68002BFBD0EF
:10530800236038BDE01D002038B50C461146002248
:105318008446074D20462A601A466446FCF712FF69
:10532800431C00D038BD2B68002BFBD0236038BD50
:10533800E01D0020014B1868704700BF18000020CE
:1053480070B50F4B0F4DAB42A3EB050607D00024F9
:10535800B61055F8043B01349847A642F9D805F031
:10536800DBFF094D094B5E1BAB424FEAA60606D090
:10537800002455F8043B01349847A642F9D870BD7B
:10538800BCB70008BCB70008BCB70008C4B7000821
:10539800704700BF704700BF704700BF704700BF2D
:1053A80020F0030110F00300C0F1000051F8043BA5
:1053B80000F1040C4FEACC0C6FF000021CBF22FA7B
:1053C8000CF213434FF0010C4CEA0C2C4CEA0C4C39
:1053D800A3EB0C0222EA030212EACC1204BF51F832
:1053E800043B0430F4D0C2F1000102EA0102B2FA2F
:1053F80082F2C2F11F0200EBD2007047024B13B1D8
:10540800024800F005B8704700000000F97A00086B
:10541800002301461A46184602F010BC2DE9F8434D
:1054280006460820894602F077FB0546DFF8988093
:10543800304600F005FCD8F808305F6827F003070D
:10544800A7F11104A4EB09042C44B4FBF5F4013CC6
:1054580005FB04F4A54208DC0021304602F036FBC7
:10546800D8F808303B44984205D0304600F0EEFBAF
:105478000020BDE8F8833046614202F027FB013086
:105488000FD0124AD8F808303F1B47F001075F6079
:10549800136830461B1B136000F0D8FB0120BDE8E1
:1054A800F8830021304602F011FBD8F80820831A4F
:1054B8000F2BDADD43F001035360054B03491B68EA
:1054C800C01A0860D1E700BF50010020F41D002079
:1054D8004401002000297CD0F8B50C46064600F0AF
:1054E800AFFB54F8043C774FA4F1080523F0010101
:1054F8006818D7F808C04268844522F0030200F013
:105508008380DB07426000EB020C33D454F8084C6C
:10551800DCF804302D1B2144AC6807F1080C644505
:1055280003F0010364D0D5F80CE0C4F80CE0CEF821
:105538000840002B00F0818041F001036B6001609E
:10554800B1F5007F22D20122CB0849098A40796847
:1055580001330A437A6057F8331007EBC302083A5D
:10556800C5E9021247F83350CD603046BDE8F8402F
:1055780000F06CBBDCF80430DB072BD541F00103ED
:10558800B1F5007F44F8043C0160DCD3B1F5206F2D
:105598004FEA512353D28B0903F1390003F1380242
:1055A800C300F818FB580838984203D163E09B6899
:1055B800984204D05A6822F003028A42F7D8D86881
:1055C800C5E9023085603046DD60BDE8F84000F08E
:1055D8003DBB7047114407F1080C836863453FD011
:1055E800C268DA60936041F001036B606950A7E715
:1055F800002B61D10A44D0E90213CB60996042F0D4
:1056080001036B60AA50B0E70A44D90707D454F8DD
:10561800083CED1A1A44D5E90213CB60996042F0B0
:1056280001036B60284BBD601B6893429DD8274BD4
:1056380030461968FFF7F2FE97E71144CDE7142BBF
:1056480008D9542B1FD80B0B03F16F0003F16E021E
:10565800C300A6E703F15C0003F15B02C300A0E707
:1056680041F001033D617D61C5F808C0C5F80CC073
:105678006B60695079E70121921001FA02F27968AA
:105688000A437A609CE7B3F5AA7F06D8CB0B03F1EF
:10569800780003F17702C30083E740F25452934243
:1056A80006D88B0C03F17D0003F17C02C30078E778
:1056B8004FF47E737E2274E741F001036B60016052
:1056C80053E700BF5001002048010020241E00209D
:1056D8002DE9F04F01F10B05162D064683B024D8AD
:1056E800102900F2AA8000F0ABFA102518234FF019
:1056F800020CB74F3B445C68A3F10802944200F0E7
:10570800198130466368E268A16823F00303CA6020
:10571800234491605A68083442F001025A6000F04C
:1057280095FA204603B0BDE8F08F35F0070500F183
:105738008480A94200F2818000F082FAB5F5FC7FEE
:10574800C0F06F816B0A7CD0042B00F21B81AB097F
:1057580003F1390C03F1380E4FEACC009C4F384462
:1057680044680838A04207D10DE0002AE16880F2B9
:10577800DB80884207D00C46636823F003035A1B7A
:105788000F2AF2DDF446DFF84C823C69444500F00C
:10579800B980636823F0030EAEEB05030F2B00F30B
:1057A8004581002BC7E9048880F22F81BEF5007F70
:1057B800786880F0C68001234FEADE014FEA5E1E5A
:1057C800194403FA0EF357F83120184307EBC103C5
:1057D800083BA260E360786047F83140D46001215B
:1057E8004FEAAC039940814232D8014206D12CF0ED
:1057F800030C490001420CF1040CFAD007EBCC0A67
:105808005046E146D0F80CE00DE0DEF8042074467E
:1058180022F00302531B0F2BDEF80CE000F3BF80CD
:10582800002B80F2E3807045EFD109F1010919F0EE
:10583800030F00F10800E5D124E10C2333600024B4
:105848006FE74FF400704FF0400C4FF03F0E85E7C4
:10585800BC68636823F00309A94503D3A9EB0503D2
:105868000F2B51DC5C4B08201B6803F1100802F079
:1058780053F95A4A04EB090300931368834601332A
:10588800A84405D008F1FF388044434203EA0808D9
:105898004146304602F01AF9B0F1FF3F82464F4ABE
:1058A80000F0E18004EB0903834200F2DA804C4BFC
:1058B8000BF1FF31186840448446186040F00081BD
:1058C8001AEA010F40F0FC80D7F808A0C84448F055
:1058D8000102CAF804205446424B1968814238BF75
:1058E8001860414B1968814238BF186022F00308DC
:1058F800A845A8EB050301D30F2B05DC304600F0C3
:10590800A5F99CE778686AE7621943F0010345F056
:10591800010565603046BA600834536000F096F9B6
:10592800204603B0BDE8F08FA2683046D16023441A
:105938008A60EFE6DC68A3427FF4E3AE0CF1020C68
:1059480021E7BEF5206F4FEA5E22C0F08380142A5B
:1059580000F2178102F15C03DB005B32F918FB5897
:105968000839994203D1F3E09B68994204D05A68F8
:1059780022F003027245F7D8D968C4E902318C6075
:10598800DC602CE7142B71D9542B00F203812B0B0C
:1059980003F16F0C03F16E0E4FEACC00DEE66119DD
:1059A800304645F00105A668656043F00105C6F874
:1059B8000CE0CEF80860C7E90411C1F80880C1F806
:1059C8000C804D60A35000F041F90834A9E600BFEF
:1059D8005001002058010020241E0020440100200E
:1059E800F41D0020201E00201C1E002022445368A5
:1059F800304643F00103536054F8083FC3F80CE005
:105A0800CEF8083000F022F98BE6A644DEF8043020
:105A1800304643F00103CEF8043000F017F908349B
:105A28007FE64FEAD50C05F1080362E6621943F0F8
:105A3800010145F0010565603046C7E90422C2F856
:105A48000880C2F80C80516044F80E3000F0FEF86F
:105A5800083466E64FEA9E1202F13903DB00383259
:105A68007CE7BC4224D0BC6862683FE703F15C0C69
:105A780003F15B0E4FEACC0070E65AF8083953453B
:105A880040F0D9801CF0030F0CF1FF3CF5D17B6886
:105A980023EA01037B60490099423FF6D9AE19B960
:105AA800D6E6490009F104091942FAD0CC46A5E620
:105AB800624B0BF1FF31186808EB000CC3F800C00B
:105AC8001068013071D004EB0902AAEB02026244AB
